:020000040800F2
:1000000000500020D9230008950D0008970D000826
:10001000990D00089B0D00089D0D000800000000D0
:100020000000000000000000000000009F0D00081C
:10003000A10D000800000000A30D0008A50D000898
:10004000212400082124000821240008212400087C
:10005000212400082124000821240008212400086C
:10006000212400082124000821240008212400085C
:10007000212400082124000821240008212400084C
:10008000212400082124000821240008212400083C
:10009000212400082124000821240008212400082C
:1000A000AD0D0008BD0D0008CD0D0008DD0D0008E8
:1000B000212400082124000821240008212400080C
:1000C00021240008212400082124000821240008FC
:1000D00021240008212400082124000821240008EC
:1000E000ED0D000821240008212400080000000074
:1000F0000000000000000000000000000000000000
:0C01000000000000000000005FF808F1A3
:10010C0010B5054C237833B9044B13B10448AFF345
:10011C0000800123237010BD880000200000000027
:10012C00AC2C000808B5034B1BB103490348AFF3D3
:10013C00008008BD000000008C000020AC2C0008E2
:10014C0080F0004002E000BF81F0004142001FBF80
:10015C005FEA410392EA030F7FEA226C7FEA236C89
:10016C006AD04FEA1262D2EB1363C1BFD21841407E
:10017C0048404140B8BF5B42192B88BF704710F014
:10018C00004F40F4000020F07F4018BF404211F0B7
:10019C00004F41F4000121F07F4118BF494292EA1F
:1001AC00030F3FD0A2F1010241FA03FC10EB0C004B
:1001BC00C3F1200301FA03F100F0004302D54942D8
:1001CC0060EB4000B0F5000F13D3B0F1807F06D385
:1001DC0040084FEA310102F10102FE2A51D2B1F17D
:1001EC00004F40EBC25008BF20F0010040EA030072
:1001FC007047490040EB000010F4000FA2F101021F
:10020C00EDD1B0FA80FCACF1080CB2EB0C0200FAA8
:10021C000CF0AABF00EBC25052421843BCBFD040F6
:10022C001843704792F0000F81F4000106BF80F470
:10023C0000000132013BB5E74FEA41037FEA226C33
:10024C0018BF7FEA236C21D092EA030F04D092F0FE
:10025C00000F08BF0846704790EA010F1CBF002032
:10026C00704712F07F4F04D1400028BF40F000408F
:10027C00704712F100723CBF00F50000704700F0AF
:10028C00004343F0FE4040F4000070477FEA2262D6
:10029C0016BF08467FEA23630146420206BF5FEAA7
:1002AC00412390EA010F40F4800070474FF00003A7
:1002BC0004E000BF10F0004348BF40425FEA000C6E
:1002CC0008BF704743F0964301464FF000001CE016
:1002DC0050EA010208BF70474FF000030AE000BF6C
:1002EC0050EA010208BF704711F0004302D54042AA
:1002FC0061EB41015FEA010C02BF8446014600201C
:10030C0043F0B64308BFA3F18053A3F50003BCFA36
:10031C008CF2083AA3EBC25310DB01FA02FC6344E3
:10032C0000FA02FCC2F12002BCF1004F20FA02F2EA
:10033C0043EB020008BF20F00100704702F12002DD
:10034C0001FA02FCC2F1200250EA4C0021FA02F23E
:10035C0043EB020008BF20EADC7070474FF0FF0C43
:10036C001CEAD0521EBF1CEAD15392EA0C0F93EA3E
:10037C000C0F6FD01A4480EA010C400218BF5FEAE0
:10038C0041211ED04FF0006343EA501043EA511153
:10039C00A0FB01310CF00040B1F5000F3EBF49004D
:1003AC0041EAD3715B0040EA010062F17F02FD2A51
:1003BC001DD8B3F1004F40EBC25008BF20F0010034
:1003CC00704790F0000F0CF0004C08BF49024CEA4B
:1003DC00502040EA51207F3AC2BFD2F1FF0340EADD
:1003EC00C250704740F400004FF00003013A5DDC4E
:1003FC0012F1190FDCBF00F000407047C2F100028F
:10040C00410021FA02F1C2F1200200FA02FC5FEA7B
:10041C00310040F1000053EA4C0308BF20EADC70C5
:10042C00704792F0000F00F0004C02BF400010F437
:10043C00000F013AF9D040EA0C0093F0000F01F0E4
:10044C00004C02BF490011F4000F013BF9D041EA06
:10045C000C018FE70CEAD15392EA0C0F18BF93EA08
:10046C000C0F0AD030F0004C18BF31F0004CD8D132
:10047C0080EA010000F00040704790F0000F17BFB9
:10048C0090F0004F084691F0000F91F0004F14D0FF
:10049C0092EA0C0F01D142020FD193EA0C0F03D157
:1004AC004B0218BF084608D180EA010000F000405A
:1004BC0040F0FE4040F40000704740F0FE4040F435
:1004CC00400070474FF0FF0C1CEAD0521EBF1CEAD4
:1004DC00D15392EA0C0F93EA0C0F69D0A2EB0302F2
:1004EC0080EA010C49024FEA402037D04FF080538C
:1004FC0043EA111143EA10130CF000408B4238BF51
:10050C005B0042F17D024FF4000C8B4224BF5B1A5E
:10051C0040EA0C00B3EB510F24BFA3EB510340EAAC
:10052C005C00B3EB910F24BFA3EB910340EA9C005A
:10053C00B3EBD10F24BFA3EBD10340EADC001B01CA
:10054C0018BF5FEA1C1CE0D1FD2A3FF650AF8B426E
:10055C0040EBC25008BF20F0010070470CF0004C7B
:10056C004CEA50207F32C2BFD2F1FF0340EAC250A6
:10057C00704740F400004FF00003013A37E792F067
:10058C00000F00F0004C02BF400010F4000F013AC5
:10059C00F9D040EA0C0093F0000F01F0004C02BFC0
:1005AC00490011F4000F013BF9D041EA0C0195E729
:1005BC000CEAD15392EA0C0F08D142027FF47DAFC2
:1005CC0093EA0C0F7FF470AF084676E793EA0C0FB2
:1005DC0004D14B023FF44CAF08466EE730F0004CB0
:1005EC0018BF31F0004CCAD130F000427FF45CAF40
:1005FC0031F000437FF43CAF5FE700BF4FEA4002AD
:10060C00B2F1FE4F0FD34FF09E03B3EB12620DD934
:10061C004FEA002343F0004310F0004F23FA02F09E
:10062C0018BF404270474FF00000704712F1610F45
:10063C0001D1420205D110F0004008BF6FF000401C
:10064C0070474FF000007047F0B589B00024049457
:10065C00059406940794294B9A6942F010029A610A
:10066C009A6902F010020092009A9A6942F02002F4
:10067C009A619A6902F020020192019A9A6942F0F9
:10068C0004029A619A6902F004020292029A9A692F
:10069C0042F008029A619B6903F008030393039BE1
:1006AC00174F2246A021384600F065FD4FF4005349
:1006BC000493144B05930694134D04A9284600F09B
:1006CC0067FCA02304930123059306940226079646
:1006DC0004A9384600F05CFC30230493059406967C
:1006EC0004A9284600F054FC22462146282000F09C
:1006FC00F7FB282000F028FC09B0F0BD00100240E8
:10070C0000080140000011100010014072B6FEE715
:10071C0000B58DB02022002104A801F0A7FE002313
:10072C00019302931148124A0260C722426083600F
:10073C0040F67F42C26003614361836101230393EE
:10074C000593099303A901F05FFA50B900230193B3
:10075C00029301A9054801F0EDFC20B90DB05DF83C
:10076C0004FBFFF7D3FFFFF7D1FF00BFD40000203D
:10077C00002C014000B58FB000230A930B930C930F
:10078C000D93089309930193029303930493059398
:10079C00069307931E481F4A0260436083604FF61E
:1007AC00FF72C2600361836101F0D8F928BB0EA906
:1007BC004FF4805341F8103D154801F022FBF0B97D
:1007CC00134801F0F6F9E0B900230893099308A93E
:1007DC000F4801F0AFFCB0B96023019300220292E4
:1007EC000392059201A90A4801F098FA68B90848E1
:1007FC0000F072FA0FB05DF804FBFFF787FFFFF70C
:10080C0085FFFFF783FFFFF781FFFFF77FFF00BF37
:10081C00D40000200004004008B50A480A4B0360CD
:10082C004FF4E133436000238360C36003610C2207
:10083C0042618361C36101F02CFD00B908BDFFF773
:10084C0065FF00BF740100200044004000B591B06A
:10085C002022002107A801F009FE00230193029336
:10086C000393049305930223069301220A92102208
:10087C000B920D934FF460130F9306A800F0A6FC97
:10088C0080B90F23019302210291002303934FF4AB
:10089C0080620492059301A800F0D8FE20B911B033
:1008AC005DF804FBFFF732FFFFF730FF2DE9F0474F
:1008BC009AB000F0DFFAFFF7C9FFFFF7C5FEFFF7AC
:1008CC0027FFFFF757FFFFF7A7FF4E2200210DF17F
:1008DC001A0001F0CBFD01ACAC4D0FCD0FC495E867
:1008EC00030044F8040B24F8021B090C21704FF090
:1008FC00FF33642201A9A64801F0FAFC3C21A5486B
:10090C0001F0B0FBB3E0A44C012323600022802152
:10091C00A24800F030FC3C21A14801F0EFFAA14BB9
:10092C005B6A6360A04B1B68002B00F0A780102152
:10093C009E4800F019FC012840F0A080994BD3F898
:10094C0024802646C4F80480974D6C68A4EB0804F8
:10095C00974B1C60D6F80890A4EB0900954B1860D7
:10096C00954B1C60A4EB4907F3681F44934B1F6025
:10097C00FFF7A0FCA968FFF7F1FC82462046FFF7C1
:10098C0099FCE968FFF7EAFC01465046FFF7DEFBED
:10099C0082463846FFF78EFC2969FFF7DFFC0146DB
:1009AC005046FFF7D3FBFFF729FE07462860C6F831
:1009BC000C90B46064242246002101A801F056FD7D
:1009CC003B4642467E4901A801F058FD4FF0FF33EB
:1009DC00224601A96E4801F08BFC2B68002B10DC21
:1009EC00714B1B68BBB1704B1B68002B18DB802153
:1009FC006A4800F0B9FB002840D100201AB0BDE8CD
:100A0C00F08700228021654800F0B5FB3C2164484A
:100A1C0001F074FAE4E73C21614801F06FFAE2E777
:100A2C00012280215D4800F0A6FB3C215C4801F0CE
:100A3C0065FADCE701228021584800F09CFB3C2140
:100A4C00574801F05BFA7FE03C21554801F0C8FAA9
:100A5C007FE000228021514800F08DFB3C21504862
:100A6C0001F04CFA7BE03C214D4801F0B9FA102121
:100A7C004E4800F079FB01283FF445AF464C00236B
:100A8C00236001228021454800F075FB3C2144483D
:100A9C0001F034FA434B5B6A6360434B1B68002BD9
:100AAC0064D1404BD3F824802646C4F804803E4DD4
:100ABC006C69A4EB08043E4B1C60D6F80890A4EBC0
:100ACC0009003C4B18603C4B1C60A4EB4907F368D5
:100ADC001F443A4B1F60FFF7EDFBA968FFF73EFC84
:100AEC0082462046FFF7E6FBE968FFF737FC014634
:100AFC005046FFF72BFB82463846FFF7DBFB296994
:100B0C00FFF72CFC01465046FFF720FBFFF776FD64
:100B1C0007462860C6F80C90B46064242246002175
:100B2C0001A801F0A3FC3B464246264901A801F06E
:100B3C00A5FC4FF0FF33224601A9154801F0D8FB64
:100B4C002B68DB2B7FF776AF174B1B68002B3FF422
:100B5C007BAF154B1B6813F1C80FBFF67AAF202182
:100B6C00124800F001FB00283FF447AF20210F484A
:100B7C0000F0FAFA00283FF476AF10210B4800F091
:100B8C00F3FA00287FF473AF6DE700BFF02C000878
:100B9C00740100202C010020A4000020000801405A
:100BAC00D4000020002C0140000000200010014067
:100BBC00D00000201C010020240100202001002076
:100BCC00082D00082C2D000882B00E4B9A6942F0BB
:100BDC0001029A619A6902F001020092009ADA69A4
:100BEC0042F08052DA61DB6903F080530193019B80
:100BFC00054A536823F0E06343F00073536002B07E
:100C0C00704700BF001002400000014000B587B0E3
:100C1C00002302930393049305930268214B9A4299
:100C2C0002D007B05DF804FB03F564439A6942F403
:100C3C0000629A619A6902F400620092009A9A69C1
:100C4C0042F004029A619B6903F004030193019B37
:100C5C0006A94FF4407341F8103D134800F098F981
:100C6C0000221146182000F03BF9182000F06CF916
:100C7C0000221146192000F033F9192000F064F914
:100C8C00002211461A2000F02BF91A2000F05CF912
:100C9C00002211461B2000F023F91B2000F054F910
:100CAC00BFE700BF002C0140000801400268094B5F
:100CBC009A4200D0704782B003F50333DA6942F0F0
:100CCC000202DA61DB6903F002030193019B02B0BB
:100CDC00704700BF0004004000B587B000230293AA
:100CEC0003930493059302680D4B9A4202D007B00C
:100CFC005DF804FB03F503339A6942F004029A6130
:100D0C009B6903F004030193019B4023029302238C
:100D1C000393059302A9034800F03AF9E7E700BFF3
:100D2C00000400400008014000B587B00023029386
:100D3C000393049305930268114B9A4202D007B0B7
:100D4C005DF804FB03F5E633DA6942F40032DA614C
:100D5C00DA6902F400320092009A9A6942F00402B5
:100D6C009A619B6903F004030193019B0C2302938A
:100D7C0002230393059302A9024800F009F9DEE768
:100D8C000044004000080140FEE7FEE7FEE7FEE7F6
:100D9C00FEE770477047704708B500F07DF808BD56
:100DAC0008B5024800F0E3FD08BD00BF2C0100208F
:100DBC0008B5024800F0DBFD08BD00BF2C01002087
:100DCC0008B5024800F0D3FD08BD00BF2C0100207F
:100DDC0008B5024800F0CBFD08BD00BF2C01002077
:100DEC0008B54FF4005000F0CDF908BD08B5034626
:100DFC000B4A126842B10A4A106803446A4693428D
:100E0C0006D8074A136008BD054A06491160F2E787
:100E1C0001F002FB0C2303604FF0FF30F3E700BF3F
:100E2C00C0000020C00100207047000010B504462F
:100E3C000E4B18784FF47A73B3FBF0F30C4A10682E
:100E4C00B0FBF3F000F08EF868B90F2C01D901203B
:100E5C000AE0002221464FF0FF3000F041F8034B2E
:100E6C005C60002000E0012010BD00BF1C000020D1
:100E7C001800002008B5074A136843F010031360EC
:100E8C00032000F01BF80020FFF7D0FFFFF79CFEBB
:100E9C00002008BD00200240034A1168034B1B7858
:100EAC000B441360704700BFB40100201C000020ED
:100EBC00014B1868704700BFB4010020074AD36883
:100ECC0023F4E0631B041B0C000200F4E0601843E5
:100EDC0040F0BF6040F40030D060704700ED00E09F
:100EEC0030B4174BDB68C3F30223C3F10704042CA3
:100EFC0028BF04241D1D062D18D9033B4FF0FF35C8
:100F0C0005FA04F421EA0401994005FA03F322EAF4
:100F1C000303194300280BDB0901C9B200F160403F
:100F2C0000F5614080F8001330BC70470023E5E702
:100F3C0000F00F000901C9B2024B1954F4E700BFCD
:100F4C0000ED00E014ED00E0002807DB00F01F02CC
:100F5C00400901239340024A42F82030704700BFF9
:100F6C0000E100E00138B0F1807F0AD2064B5860F6
:100F7C00064AF02182F823100020986007221A609C
:100F8C0070470120704700BF10E000E000ED00E06A
:100F9C00F0B482B000263246A2E0002D5AD0012DCA
:100FAC0000D1CE68FF2B69D88446FF2B69D89500F9
:100FBC00DCF800400F27AF4024EA070406FA05F5D9
:100FCC002C43CCF800404C6814F0805F00F0878014
:100FDC005F4CA56945F00105A561A46904F0010405
:100FEC000194019C9508AF1C5A4C54F8274002F010
:100FFC000307BF004FF00F0C0CFA07FC24EA0C0C93
:10100C00554CA04243D004F58064A04200F081808E
:10101C0004F58064A0427ED004F58064A04234D0F4
:10102C00042435E04D4FBD4214D00BD94C4FBD427A
:10103C0010D007F58037BD420CD0A7F58017BD4204
:10104C00B0D107E0A7F58017BD4203D007F5803774
:10105C00BD42A7D18D687DB1012D08D04461082611
:10106C00A0E7CE6808369DE7CE680C369AE7046197
:10107C00082697E7002695E7042693E700F1040C71
:10108C0093E7A2F10805AD0092E7032400E00024E9
:10109C00BC4044EA0C0402352E4F47F825404C68FE
:1010AC0014F4803F39D02F4D2C681C432C604C68B5
:1010BC0014F4003F37D02B4D6C681C436C604C68AB
:1010CC0014F4801F35D0274DAC681C43AC604C68C1
:1010DC0014F4001F33D0234DEC682343EB60013232
:1010EC000B6833FA02F430D00124944023409C4224
:1010FC00F5D14D68122DB7D094D8022DB1D07FF612
:10110C004CAF032DB6D0112D7FF44CAFCE68043606
:10111C0048E70124BCE70224BAE7124D2C6824EA04
:10112C0003042C60C3E70F4D6C6824EA03046C6065
:10113C00C5E70C4DAC6824EA0304AC60C7E7094D65
:10114C00EC6824EA0303EB60C9E702B0F0BC70471B
:10115C000010024000000140000801400000211076
:10116C0000003110000401408368194201D10020B5
:10117C0070470120704712B9090401617047016181
:10118C007047704708B5054B5B69034200D108BD39
:10119C00024B5861FFF7F5FFF9E700BF000401406F
:1011AC0082B0084B1B68084AA2FB03235B0A00FBB6
:1011BC0003F0019000BF019B5A1E0192002BF9D144
:1011CC0002B0704718000020D34D6210002800F0C8
:1011DC00F58170B582B00446036813F0010F2CD072
:1011EC00AB4B5B6803F00C03042B1DD0A84B5B6866
:1011FC0003F00C03082B12D06368B3F5803F41D089
:10120C00002B55D103F1804303F504331A6822F403
:10121C0080321A601A6822F480221A6037E09C4BE4
:10122C005B6813F4803FE7D0994B1B6813F4003FC5
:10123C0003D06368002B00F0C381236813F0020F06
:10124C0076D0934B5B6813F00C0F5FD0904B5B68C0
:10125C0003F00C03082B54D02369002B00F08A8078
:10126C008C4B01221A60FFF723FE0546884B1B6846
:10127C0013F0020F75D1FFF71BFE401B0228F5D9A6
:10128C000320A0E1824A136843F48033136063683F
:10129C0043B3FFF70DFE05467D4B1B6813F4003F6F
:1012AC00CBD1FFF705FE401B6428F5D903208AE15A
:1012BC00B3F5A02F09D0764B1A6822F480321A604D
:1012CC001A6822F480221A60E1E703F18043A3F547
:1012DC003C331A6842F480221A601A6842F4803255
:1012EC001A60D4E7FFF7E4FD0546694B1B6813F45D
:1012FC00003FA2D0FFF7DCFD401B6428F5D903208A
:10130C0061E1634B5B6813F4803FA5D1604B1B68B4
:10131C0013F0020F04D02369012B01D0012052E1FC
:10132C005B4A136823F0F803616943EAC103136055
:10133C00236813F0080F32D0A369002B5BD0564BF7
:10134C0001221A60FFF7B4FD0546514B5B6A13F09E
:10135C00020F21D1FFF7ACFD401B0228F5D9032069
:10136C0031E14B4A136823F0F803616943EAC10386
:10137C001360DDE7474B00221A60FFF799FD054625
:10138C00434B1B6813F0020FD2D0FFF791FD401BAB
:10139C000228F5D9032016E10120FFF701FF23688D
:1013AC0013F0040F00F09880394BDB6913F0805F69
:1013BC0033D1374BDA6942F08052DA61DB6903F0E2
:1013CC0080530193019B0125344B1B6813F4807FE0
:1013DC0025D0E368012B36D0002B4CD103F1804390
:1013EC0003F504331A6A22F001021A621A6A22F017
:1013FC0004021A622CE0284B00221A60FFF758FDF9
:10140C000546234B5B6A13F0020FC8D0FFF750FD63
:10141C00401B0228F5D90320D5E00025D4E71F4A4C
:10142C00136843F480731360FFF742FD06461B4BB1
:10143C001B6813F4807FCCD1FFF73AFD801B642826
:10144C00F5D90320BFE0124A136A43F0010313627B
:10145C00E3687BB3FFF72CFD06460D4B1B6A13F0BC
:10146C00020F38D1FFF724FD801B41F288339842DC
:10147C00F3D90320A7E0052B12D0054B1A6A22F0F2
:10148C0001021A621A6A22F004021A62E0E700BF33
:10149C0000100240000042428004424200700040B2
:1014AC004C4B1A6A42F004021A621A6A42F00102A8
:1014BC001A62CDE7FFF7FCFC0646464B1B6A13F09D
:1014CC00020F08D0FFF7F4FC801B41F288339842DE
:1014DC00F3D9032077E0E5B9E369002B72D03D4ADC
:1014EC00526802F00C02082A56D0022B17D03A4B45
:1014FC0000221A60FFF7DCFC0446364B1B6813F025
:10150C00007F47D0FFF7D4FC001B0228F5D903203D
:10151C0059E0304AD36923F08053D361DCE72E4B7A
:10152C0000221A60FFF7C4FC05462A4B1B6813F017
:10153C00007F06D0FFF7BCFC401B0228F5D9032026
:10154C0041E0236AB3F5803F1AD022494B6823F45B
:10155C007413226A606A024313434B601E4B0122D0
:10156C001A60FFF7A5FC04461A4B1B6813F0007FAA
:10157C000ED1FFF79DFC001B0228F5D9032022E0B9
:10158C00144A536823F40033A1680B435360DCE71F
:10159C00002018E0002016E0012B16D00D4B5B68E4
:1015AC0003F48031226A914201D001200BE003F454
:1015BC007013626A93420AD0012004E00120704744
:1015CC00012000E0002002B070BD0120FBE70020EC
:1015DC00F9E700BF001002406000424210B487B02F
:1015EC00164C94E80F000DF1180C0CE90F00238A2F
:1015FC00ADF80430124B5B6803F00C02082A1AD1C8
:10160C00C3F38342624412F8102C13F4803F05D1CB
:10161C000C4800FB02F007B010BC7047084B5B682D
:10162C00C3F34043634413F8143C074800FB02F037
:10163C00B0FBF3F0EFE70448EDE700BFDC2C00084B
:10164C000010024000093D0000127A00002800F052
:10165C00A38070B50446524B1B6803F007038B4202
:10166C000CD24F4A136823F007030B431360136823
:10167C0003F007038B4201D0012070BD236813F0E7
:10168C00020F17D013F0040F04D0464A536843F4EA
:10169C00E0635360236813F0080F04D0414A536889
:1016AC0043F4605353603F4A536823F0F003A0683F
:1016BC00034353600D46236813F0010F31D0636868
:1016CC00012B20D0022B25D0364A126812F0020FC3
:1016DC0064D034494A6822F0030213434B60FFF78D
:1016EC00E7FB06462F4B5B6803F00C036268B3EB19
:1016FC00820F16D0FFF7DCFB801B41F28833984237
:10170C00F0D90320B9E7274A126812F4003FE0D160
:10171C000120B2E7234A126812F0007FD9D10120D0
:10172C00ABE71F4B1B6803F00703AB420CD91C4AF9
:10173C00136823F007032B431360136803F00703AC
:10174C00AB4201D0012098E7236813F0040F06D0B8
:10175C00144A536823F4E063E1680B435360236835
:10176C0013F0080F07D00F4A536823F46053216914
:10177C0043EAC1035360FFF731FF0A4B5B68C3F3C5
:10178C000313094AD35CD840084B1860084B1868FF
:10179C00FFF74CFB002070E70120704701206CE73D
:1017AC000020024000100240C42C00081800002049
:1017BC0020000020014B1868704700BF1800002063
:1017CC0008B5FFF7F7FF044B5B68C3F30223034A2A
:1017DC00D35CD84008BD00BF00100240D42C0008D8
:1017EC0008B5FFF7E7FF044B5B68C3F3C223034A5A
:1017FC00D35CD84008BD00BF00100240D42C0008B8
:10180C0070B4036A23F001030362036A42688469BB
:10181C0024F073040D6845EA040623F002048B6877
:10182C0023430D4DA84209D00B4DA8420DD0426068
:10183C0086614A684263036270BC704723F00803F8
:10184C00CC68234323F00403EEE722F440724C6986
:10185C0014438A692243EAE7002C014030B4036A3E
:10186C0023F480730362036A4268C46924F073042E
:10187C000D682C4323F400738D6843EA05230F4D48
:10188C00A84209D00D4DA8420ED04260C4614A68EE
:10189C00C263036230BC704723F40063CD6843EA33
:1018AC00052323F48063EDE722F440524D6942EAAC
:1018BC0005128D6942EA0512E7E700BF002C0140D2
:1018CC0030B4036A23F480530362036A4468C26928
:1018DC0022F4E6420D6842EA052223F400538D6897
:1018EC0043EA0533074DA84206D04460C2614A68FA
:1018FC000264036230BC704724F480444D6944EAAE
:10190C008514F2E7002C014010B4036A046A24F039
:10191C0001040462846924F0F00444EA021223F006
:10192C000A030B438261036210BC704710B4036A54
:10193C0023F0100303628469036A24F4704444EABC
:10194C00023223F0A00343EA01138261036210BC4C
:10195C007047836823F07003194341F007018160DD
:10196C00704770477047704770477047704710B5A5
:10197C00044603681A6912F0020F11D0DA6812F0EB
:10198C00020F0DD06FF002021A6101230377036876
:10199C009B6913F0030F70D0FFF7E6FF002323774A
:1019AC0023681A6912F0040F12D0DA6812F0040FCF
:1019BC000ED06FF004021A610223237723689B690F
:1019CC0013F4407F5FD02046FFF7CEFF0023237730
:1019DC0023681A6912F0080F12D0DA6812F0080F97
:1019EC000ED06FF008021A61042323772368DB6999
:1019FC0013F0030F4ED02046FFF7B6FF00232377DA
:101A0C0023681A6912F0100F12D0DA6812F0100F56
:101A1C000ED06FF010021A61082323772368DB695C
:101A2C0013F4407F3DD02046FFF79EFF0023237721
:101A3C0023681A6912F0010F03D0DA6812F0010F53
:101A4C0036D123681A6912F0800F03D0DA6812F0CD
:101A5C00800F34D123681A6912F0400F03D0DA6872
:101A6C0012F0400F32D123681A6912F0200F03D004
:101A7C00DA6812F0200F30D110BDFFF774FF20464A
:101A8C00FFF773FF8AE72046FFF76DFF2046FFF74D
:101A9C006CFF9BE72046FFF766FF2046FFF765FFCC
:101AAC00ACE72046FFF75FFF2046FFF75EFFBDE780
:101ABC006FF001021A612046FFF754FFC1E76FF087
:101ACC0080021A61204600F06AFBC3E76FF0400207
:101ADC001A612046FFF74AFFC5E76FF020021A6132
:101AEC00204600F05BFBC7E703681B4A90420AD014
:101AFC00B0F1804F07D0A2F59432904203D002F59A
:101B0C008062904203D123F070034A681343124A57
:101B1C0090420AD0B0F1804F07D0A2F59432904297
:101B2C0003D002F58062904203D123F44073CA685B
:101B3C00134323F080034A69134303608B68C36229
:101B4C000B688362044B984202D0012343617047B7
:101B5C000B690363F9E700BF002C014038B310B5E3
:101B6C00044690F83D30EBB1022384F83D30211D42
:101B7C002068FFF7B9FF012384F8463084F83E3023
:101B8C0084F83F3084F8403084F8413084F8423097
:101B9C0084F8433084F8443084F8453084F83D3080
:101BAC00002010BD80F83C30FFF780F8DCE7012006
:101BBC00704738B310B5044690F83D30EBB10223B2
:101BCC0084F83D30211D2068FFF78EFF012384F837
:101BDC00463084F83E3084F83F3084F8403084F846
:101BEC00413084F8423084F8433084F8443084F82F
:101BFC00453084F83D30002010BD80F83C30FFF7B4
:101C0C00B0FEDCE701207047002853D0F8B504463D
:101C1C000D4690F83D30002B47D0022384F83D3020
:101C2C00214651F8042B936823F4804323F00703D7
:101C3C0093602068FFF758FF21688A688E690F6AE5
:101C4C002868104326F4407626F00306AA68AB6990
:101C5C0042EA0323334323F47C4323F0FC03EE6872
:101C6C00EA6946EA02261E432A6A13032A6943EAF2
:101C7C000213334327F022076A686D6942EA0512A2
:101C8C003A43886021688B6123681A62012384F8C7
:101C9C00463084F83E3084F83F3084F8423084F883
:101CAC00433084F83D300020F8BD80F83C30FEF71E
:101CBC00ADFFB2E70120704730B4036A23F0100384
:101CCC000362036A4468826922F4E6420D6842EAC0
:101CDC00052223F020038D6843EA05130E4DA8421C
:101CEC0009D00D4DA8420ED0446082614A688263CF
:101CFC00036230BC704723F08003CD6843EA0513C0
:101D0C0023F04003EDE724F440644D6944EA850474
:101D1C008D6944EA8504E7E7002C014038B590F85A
:101D2C003C30012B60D00D460446012380F83C303A
:101D3C000C2A1AD8DFE802F0071919191D191919FC
:101D4C003119191944000068FFF75AFD226893698C
:101D5C0043F0080393612268936923F004039361B1
:101D6C002268936929690B439361002084F83C0035
:101D7C0038BD0068FFF7A0FF2268936943F4006345
:101D8C0093612268936923F4806393612268936959
:101D9C00296943EA01239361E7E70068FFF75EFDD9
:101DAC002268D36943F00803D3612268D36923F016
:101DBC000403D3612268D36929690B43D361D4E747
:101DCC000068FFF77DFD2268D36943F40063D3619B
:101DDC002268D36923F48063D3612268D3692969AB
:101DEC0043EA0123D361C0E70220C1E710B4846841
:101DFC0024F47F4442EA03230B432343836010BC47
:101E0C00704790F83C30012B66D010B50446012386
:101E1C0080F83C30022380F83D300268936823F44C
:101E2C007F4323F0770393600B68402B4AD013D980
:101E3C00602B3DD01ED9702B28D0B3F5005F30D16C
:101E4C00CB684A6889680068FFF7D0FF22689368FE
:101E5C0043F48043936024E0102B06D004D9202B4C
:101E6C0003D0302B01D01CE0DBB919462068FFF7FA
:101E7C0070FD16E0502B14D1CA6849680068FFF752
:101E8C0043FD50212068FFF764FD0AE0CB684A68E7
:101E9C0089680068FFF7AAFF2268936843F077030C
:101EAC009360012384F83D30002084F83C0010BD81
:101EBC00CA6849680068FFF739FD60212068FFF7A0
:101ECC0048FDEEE7CA6849680068FFF71DFD402130
:101EDC002068FFF73EFDE4E70220704710B401F0E4
:101EEC001F01012303FA01F4036A23EA04030362CA
:101EFC00036A8A401343036210BC70470A4669BBED
:101F0C0090F83E30DBB213F1FF3318BF0123002BE6
:101F1C0060D110B5002A3DD1022380F83E30114625
:101F2C00044601220068FFF7D9FF23682B4A93422D
:101F3C0040D02368294A934241D0B3F1804F3ED020
:101F4C00A2F5943293423AD002F58062934236D095
:101F5C001A6842F001021A6000203AE0042909D004
:101F6C0008290FD090F84130DBB213F1FF3318BFC2
:101F7C000123CCE790F83F30DBB213F1FF3318BFED
:101F8C000123C4E790F84030DBB213F1FF3318BFE4
:101F9C000123BCE7042A05D0082A07D0022380F8C5
:101FAC004130BCE7022380F83F30B8E7022380F8C9
:101FBC004030B4E75A6C42F400425A64B9E79A686C
:101FCC0002F00702062A07D01A6842F001021A60D2
:101FDC00002010BD012070470020FAE7002C0140C2
:101FEC0038B504460D4600220068FFF777FF2368DA
:101FFC001B4A934217D02368196A41F211121142FD
:10200C0008D1196A40F24442114203D11A6822F0F5
:10201C0001021A60B5B1042D19D0082D1BD0012373
:10202C0084F8413011E0196A41F211121142E2D1E7
:10203C00196A40F244421142DDD15A6C22F400423A
:10204C005A64D8E7012384F83E30002038BD0123C0
:10205C0084F83F30F9E7012384F84030F5E700BFFE
:10206C00002C014070B590F83E30DBB290F83F2068
:10207C0090F84240E4B290F843500E46D9B9012B87
:10208C0001D0012070BD012C01D00120FAE7022300
:10209C0080F83E3080F842300446C6B3042E42D05D
:1020AC00012200210068FFF719FF0122042120689A
:1020BC00FFF714FF30E0D2B2EDB2042903D0012BAC
:1020CC000FD00120DEE7012A01D00120DAE7012D33
:1020DC0001D00120D6E7022380F83F3080F843304E
:1020EC00DAE7012A01D00120CCE7012C01D0012034
:1020FC00C8E7012D01D00120C4E7022380F83E304F
:10210C0080F83F3080F8423080F84330C4E7012239
:10211C0000210068FFF7E2FE2268136843F0010318
:10212C0013600020AEE7012204210068FFF7D6FE01
:10213C00F2E7000090F83C30012B2BD030B4012397
:10214C0080F83C30022380F83D3003685C689D6861
:10215C0024F070040A6822435A6003680E4A9342C2
:10216C000AD0B3F1804F07D0A2F59432934203D03A
:10217C0002F58062934204D125F080054A6815432C
:10218C009D60012380F83D30002380F83C301846D8
:10219C0030BC704702207047002C014070477047DC
:1021AC0038B504460268136923F44053C1680B43E5
:1021BC00136183680269134342691A430168CB684F
:1021CC0023F4B05323F00C031343CB600268536920
:1021DC0023F4407381690B4353610268124B9A429A
:1021EC001FD0FFF7EDFA00EB800000EB8000636876
:1021FC009B00B0FBF3F00D4DA5FB0032510964229E
:10220C0002FB110213013233A5FB03235B0903F01C
:10221C00F00202EB011203F00F03216813448B60F0
:10222C0038BDFFF7DDFADEE7003801401F85EB51C2
:10223C002DE9F04105460F4616469846069C2B683C
:10224C001B6837EA03030CBF01230023B3421DD1E3
:10225C00B4F1FF3FF3D02CB1FEF72AFEA0EB08003F
:10226C00A042ECD92A68D36823F4D073D3602A68CF
:10227C00536923F001035361202385F8393085F825
:10228C003A30002385F83830032000E00020BDE808
:10229C00F08158B310B5044690F839300BB32423B1
:1022AC0084F839302268D36823F40053D360204675
:1022BC00FFF776FF2268136923F4904313612268B9
:1022CC00536923F02A0353612268D36843F4005303
:1022DC00D3600020E063202384F8393084F83A304E
:1022EC0010BD80F83830FEF71FFDD8E7012070478D
:1022FC002DE9F04182B01E4690F83930DBB2202B2C
:10230C0054D104460D469046002954D0002A54D08E
:10231C0090F83830012B52D0012380F8383000234C
:10232C00C363212380F83930FEF7C2FD0746A4F8B9
:10233C002480A4F82680A368B3F5805F05D04FF005
:10234C000008002384F8383011E0236913B14FF0F2
:10235C000008F6E7A8460025F3E738F8023B2268A8
:10236C00C3F308035360E38C013B9BB2E384E38C1F
:10237C009BB273B100963B46002280212046FFF7AA
:10238C0057FFF0B9002DE8D015F8012B23685A60DF
:10239C00E9E700963B46002240212046FFF748FF24
:1023AC00034680B9202284F8392000E00223184625
:1023BC0002B0BDE8F0810123F9E70123F7E702231E
:1023CC00F5E70323F3E70323F1E70000002103E023
:1023DC000B4B5B58435004310A480B4B42189A4242
:1023EC00F6D30A4A02E0002342F8043B084B9A4217
:1023FC00F9D3FEF719FD00F015F8FEF757FA704700
:10240C008C2D00080000002088000020880000208F
:10241C00BC010020FEE70000014B1868704700BFAC
:10242C002400002070B500250C4E0D4CA41BA410EC
:10243C00A54209D100F034FC00250A4E0A4CA41B1D
:10244C00A410A54205D170BD56F82530984701352A
:10245C00EEE756F8253098470135F2E7842D000851
:10246C00842D0008842D0008882D000803460244A2
:10247C00934200D1704703F8011BF9E70EB46FF0DB
:10248C00004100B59CB01DAB0290069007910491E1
:10249C000848094953F8042B0591006802A90193D7
:1024AC0000F066F80022029B1A701CB05DF804EB79
:1024BC0003B07047240000200802FFFF2DE9F0470D
:1024CC008E6882469E420C469046994637D88A8939
:1024DC0012F4906F31D00223256809696F1A65696F
:1024EC0005EB450595FBF3F509F101033B449D42D2
:1024FC0038BF1D46530530D5294600F037FB06463C
:10250C0050B90C234FF0FF30CAF80030A38943F0C8
:10251C004003A381BDE8F0873A46216900F0B6FA82
:10252C00A38923F4906343F08003A38126613E4486
:10253C0026604E466561ED1BA5604E4500D94E46A2
:10254C0032464146206800F0ACFAA36800209B1B81
:10255C00A36023681E442660DCE72A4600F060FB7B
:10256C0006460028E2D12169504600F0B3FAC8E7CC
:10257C002DE9F04F1D468B899DB01F0680460C46F9
:10258C0016460FD50B696BB9402100F0EFFA2060AD
:10259C00206128B90C23C8F800304FF0FF30C8E098
:1025AC00402363610023099320238DF829303023C5
:1025BC004FF0010B8DF82A30039537463D4615F840
:1025CC00013B0BB1252B3ED1B7EB060A0BD0534682
:1025DC00324621464046FFF771FF013000F0A480DF
:1025EC00099B534409933B78002B00F09D800023FA
:1025FC004FF0FF32CDE90523049307938DF8533048
:10260C001A932F46052217F8011B504800F030FA98
:10261C00049BD0B9D90644BF20228DF853201A0749
:10262C0044BF2B228DF853202A782A2A15D02F4606
:10263C0000200A25079A394611F8013B303B092B3B
:10264C004DD9B8B10FE02F46B8E7404A3D46801A45
:10265C000BFA00F018430490D3E7039A111D12688B
:10266C000391002A01DB079204E0524243F002037B
:10267C00079204933B782E2B0CD17B782A2B33D1E9
:10268C00039B02371A1D1B680392002BB8BF4FF037
:10269C00FF3305932E4D03223978284600F0E8F9D4
:1026AC0038B14023401B03FA00F0049B013703436D
:1026BC0004933978062227487E1C8DF8281000F0E8
:1026CC00D7F9002838D0244B13BB039B073323F0D6
:1026DC00070308330393099B4B4409936DE705FBF0
:1026EC00023201200F46A6E700230A2519460137BE
:1026FC000593384610F8012B303A092A03D9002BE0
:10270C00C8D00591C6E705FB012101230746F0E778
:10271C0003AB00932246114B04A94046AFF3008053
:10272C00B0F1FF3F8146D6D1A3895B063FF535AFAB
:10273C0009981DB0BDE8F08F03AB00932246074B00
:10274C0004A9404600F082F8EAE700BF502D0008CB
:10275C00562D00085A2D000800000000C92400085E
:10276C002DE9F04791461F468A680B69064693424D
:10277C00B8BF1346C9F8003091F843200C46DDF879
:10278C00208012B10133C9F800302368990642BF8A
:10279C00D9F800300233C9F80030256815F0060569
:1027AC0007D104F1190AE368D9F800209B1AAB424F
:1027BC0029DC94F843302268003318BF01239206B9
:1027CC002ED404F1430239463046C047013021D0A3
:1027DC002368E56803F00603042B18BF0025D9F81D
:1027EC0000204FF0000908BFAD1AA368226908BF8A
:1027FC0025EAE5759342C4BF9B1AED181A344D4572
:10280C001AD1002008E00123524639463046C04711
:10281C00013003D14FF0FF30BDE8F0870135C2E73E
:10282C003020E11881F843005A1C94F845102244DA
:10283C00023382F84310C4E701232246394630465E
:10284C00C0470130E6D009F10109D8E72DE9F04382
:10285C0001F1430C0C46097E85B06E2917460646DD
:10286C0098460C9A00F0B38022D8632936D00AD847
:10287C00002900F0B980582900F0838004F142054A
:10288C0084F8421032E0642901D06929F6D120681D
:10289C001368050603F104012AD51B681160002B8F
:1028AC0003DA2D225B4284F843206F480A2239E078
:1028BC00732900F09D8008D86F2920D07029DDD1B4
:1028CC00236843F02003236003E0752917D078298F
:1028DC00D4D17823654884F8453055E0136804F169
:1028EC004205191D1B68116084F8423001238CE0ED
:1028FC001B6810F0400F116018BF1BB2CFE71368B4
:10290C002568181D1060280601D51B6802E06806B2
:10291C00FBD51B886F2914BF0A22082252480021BC
:10292C0084F843106568002DA560C0F2958021687D
:10293C0021F004012160002B3DD1002D40F08E8050
:10294C006546082A0BD12368DB0708D52369626822
:10295C009A42DEBF302305F8013C05F1FF35ACEBA4
:10296C0005032361CDF800803B4603AA214630467F
:10297C00FFF7F6FE01304DD14FF0FF3005B0BDE84A
:10298C00F083394884F84510136821681D1D1B68B5
:10299C0015600A060BD5CA0744BF41F0200121601F
:1029AC001BB9226822F0200222601022B7E74D06E4
:1029BC0048BF9BB2EFE76546B3FBF2F102FB113364
:1029CC00C35C05F8013D0B460029F5D1B9E7136846
:1029DC002568181D6169106028061B6801D51960EF
:1029EC0002E06A06FBD51980002365462361B9E72E
:1029FC001368191D11601D6862680021284600F0DB
:102A0C0037F808B1401B606063682361002384F8C9
:102A1C004330A7E723692A4639463046C047013080
:102A2C00AAD023689B0713D4E068039B9842B8BFD5
:102A3C001846A3E701234A4639463046C0470130C1
:102A4C009AD00135E368039A9B1AAB42F2DCEBE7B0
:102A5C00002504F11909F5E7002BACD1037804F13A
:102A6C00420584F842306CE7612D0008722D000895
:102A7C0010B5C9B202449042034601D1002303E0D1
:102A8C001C7801308C42F6D1184610BD10B5431E8F
:102A9C000A44914200D110BD11F8014B03F8014FCB
:102AAC00F7E7884210B501EB020307D8421E9942A2
:102ABC000AD011F8014B02F8014FF8E78342F5D91F
:102ACC008118D21AD34200D110BD13F8014D01F870
:102ADC00014DF7E738B50546002943D051F8043CC1
:102AEC000C1F002BB8BFE41800F0D0F81E4A136876
:102AFC00104633B9636014602846BDE8384000F0D6
:102B0C00C6B8A3420BD921686218934201BF1A6858
:102B1C005B685218226063600460EDE713465A68E4
:102B2C000AB1A242FAD919685818A0420BD12068F0
:102B3C000144581882421960DED110685268014471
:102B4C0019605A60D8E702D90C232B60D4E72068AF
:102B5C0021188A4201BF116852680918216062600D
:102B6C005C60C9E738BD00BFC800002070B5CD1C43
:102B7C0025F0030508350C2D38BF0C25002D064615
:102B8C0001DBA94203D90C233360002070BD00F097
:102B9C007DF8214A1468214691B9204C23681BB951
:102BAC00304600F063F820602946304600F05EF8AD
:102BBC00431C24D10C233046336000F068F8E4E762
:102BCC000B685B1B18D40B2B0FD90B60CC18CD509A
:102BDC00304600F05CF804F10B00231D20F00700D8
:102BEC00C31AD3D05A42E250D0E74B688C4216BF7E
:102BFC00636013600C46EBE70C464968CCE7C41CD9
:102C0C0024F00304A04205D0211A304600F02EF81F
:102C1C000130CFD02560DBE7C8000020CC000020BD
:102C2C00F8B5074614460E4621B9BDE8F8401146E2
:102C3C00FFF79CBF22B9FFF74DFF25462846F8BD8C
:102C4C0000F026F8A0420FD221463846FFF78EFF3F
:102C5C0005460028F2D031462246FFF717FF3146D1
:102C6C003846FFF737FFE9E73546E7E738B5002385
:102C7C00054C054608462360FEF7B8F8431C02D104
:102C8C00236803B12B6038BDB80100207047704732
:102C9C0051F8043C181F002BBCBF0B58C0187047D0
:102CAC00F8B500BFF8BC08BC9E467047F8B500BF2D
:082CBC00F8BC08BC9E467047FD
:102CC40000000000000000000102030406070809D8
:102CD40000000000010203040203040506070809BA
:102CE4000A0B0C0D0E0F101001020000456E636FED
:102CF40064657220496E697469616C697A656420DF
:102D04000D0A0000456E636F6465722076616C7510
:102D140065202564202074656D702076616C202503
:102D240064200D200A000000456E636F6465722004
:102D340076616C75652025642074656D70207661FC
:102D44006C75652025640D0A00000000232D302BCE
:102D54002000686C4C006566674546470030313298
:102D640033343536373839414243444546003031EF
:102D7400323334353637383961626364656600004E
:042D84003101000811
:042D88000D01000831
:102D8C00010000000A0000000000803F0000803FAE
:102D9C000000803FC80000000024F4000100000087
:102DAC0010000000280000200000000000000000BF
:102DBC000000000000000000000000000000000007
:102DCC0000000000000000000000000000000000F7
:102DDC0000000000000000000000000000000000E7
:102DEC0000000000000000000000000000000000D7
:102DFC0000000000000000000000000000000000C7
:082E0C000000000000000000BE
:04000005080023D9F3
:00000001FF
